S01300005761747442616C616E63652E73726563CB
S11300000C946E000C948B000C948B000C948B005D
S11300100C948B000C948B000C948B000C949B051B
S11300200C948B000C948B000C948B000C94430563
S11300300C948B000C948B000C948B000C948B0010
S11300400C948B000C948B000C948B000C948B0000
S11300500C948B000C948B000C948B000C948B00F0
S11300600C948B000C948B000C948B000C948B00E0
S11300700C948B000C948B000C948B000C948B00D0
S11300800C948B000C940D060C948B000C948B0038
S11300900C948B000C948B000C948B000C948B00B0
S11300A00C948B000C948B000C948B000C948B00A0
S11300B00C948B0005A84CCDB2D44EB93836A902A5
S11300C00C50B9918688083CA6AAAA2ABE00000052
S11300D0803F3F065B4F666D7D077F6F11241FBE17
S11300E0CFEFD8E0DEBFCDBF11E0A0E0B1E0E2ED9C
S11300F0F2E102C005900D92A230B107D9F721E0D8
S1130100A2E0B1E001C01D92A43EB207E1F70E9453
S1130110C0040C9467090C94000000C000C000C027
S113012000C000C000C000000895689869987098E5
S113013071980895689AF1DF1DD00895699AEDDFEA
S11301406898EBDF6998E9DF689AE7DF13D00895D0
S1130150082E689AE2DF802D0DD0882311F002D09A
S1130160F8CF0895699A689AD8DF6998D6DF6898B5
S1130170D4DF08950894881F01C0880F59F0699A44
S113018018F40000689802C0689A00C0C6DF699835
S1130190C4DFF3CF699A6898C0DF6998619BFECF8A
S11301A08827609981E0B9DF99270895882701C0DD
S11301B081E071E0699A6898B0DF6998AEDF619B6D
S11301C0FECF889460990894771FA0F7699A8130CC
S11301D011F0689801C0689AA0DF6998619BFECF0E
S11301E09CDF872F9927089580E480937C0087E81B
S11301F080937A000895ECE7F0E09081907F8F700F
S1130200892B8083EAE7F0E0808180648083809199
S11302107A0086FDFCCF8091780090917900089552
S1130220CF92DF92EF92FF920F931F93CF93DF93BE
S11302308C01C0E0D0E033C0BE010D2E000C880B51
S1130240990B0E9451072BED3FE049EC50E40E94CA
S1130250E2076B017C01B80180E090E00E944F0747
S11302609B01AC01C701B6010E94A7060E944F087A
S113027020E030E040E85FE30E943B0620E030EFFE
S11302804FEF54E40E94E2070E9420077F70FE01B2
S1130290EE0FFF1FE45EFE4F718360832196C0174B
S11302A0D10750F2DF91CF911F910F91FF90EF9002
S11302B0DF90CF9008956091040170E00E940309DB
S11302C0CB0170930301609302010E94F30508952A
S11302D0CF93DF939F70EC01D295C295CF70CD2759
S11302E0DF70CD2788EC0E949A0080E40E94BA0057
S11302F08C2F0E94BA000E94B200DF91CF91089522
S1130300E0910501F0910601EE0FFF1FE45EFE4F40
S1130310808191810E94680180910501909106017C
S113032001966091040170E00E9417099093060100
S113033080930501089560E871E080910201909135
S113034003010E94C80508950E9407068FEF97E0F5
S11303500E9468010895CF93C82F90E00E94100175
S1130360C09304010E9495008FEF97E00E946801FA
S1130370CF91089567E081E00E94450381E00E94E7
S11303804E0381E00E947E030895CF92DF92EF92A4
S1130390FF920F931F93CF93DF936B017C010E9415
S11303A0910320E030E048EC52E4C701B6010E941A
S11303B0E20720E030E040E05FE30E943B060E9459
S11303C01907EB010AE010E0CB01B8010E941709FC
S11303D07B01682F83E00E946A03C701B8010E9471
S11303E01709682F606882E00E946A03CE0164E600
S11303F070E00E941709CB01B8010E941709682F09
S113040081E00E946A03CE0168EE73E00E9417093E
S1130410CB01B8010E941709682F80E00E946A038B
S113042081E00E947E03DF91CF911F910F91FF9095
S1130430EF90DF90CF90089590910701809108018B
S1130440981720F48BB1806C8BB903C08BB18F7378
S11304508BB98091070190E00196907899231CF460
S113046001979F6F019680930701089520E030E083
S1130470382F3695279536952795ABE7B4E10E943A
S11304804D09969587958093080108951092070168
S11304908AB1806C8AB98AB180618AB98BB18F7E46
S11304A08BB98AB18F7D8AB98BB180628BB98BB1DC
S11304B080618BB90895109207016CE172E080E0CD
S11304C090E00E94700508950E949505109207011E
S11304D08BB18F738BB9089584B1846084B98AB168
S11304E084608AB90895882321F085B1846085B930
S11304F0089585B18B7F85B90895882321F08BB148
S113050084608BB908958BB18B7F8BB908958AB1C0
S1130510877F8AB98BB188608BB9E9E6F0E0808186
S1130520846080838081877F80838DB382608DBB6C
S1130530089589B186958695869591E0892781707D
S11305400895089582959295907F9827807F9827A3
S11305509C0140E050E060E074E284EF90E00E948F
S11305602B09215031093093C5002093C40088E140
S11305708093C10086E08093C200089585B18160B4
S113058085B985B1826085B900C000C0000085B11D
S11305908E7F85B9089585B18D7F85B900C000C06F
S11305A0000085B18E7F85B900C000C0000085B110
S11305B0826085B900C000C0000085B1816085B942
S11305C0089520E017C095B19D7F95B900C000C083
S11305D0000080FF04C095B1916095B903C095B146
S11305E09E7F95B995B1926095B900C000C0000096
S11305F02F5F8695283038F385B18D7F85B984B116
S11306008E7F84B985B1816085B900C000C00000C7
S113061093B181E0492F417050E090FF80E01416BF
S1130620150634F494B1916094B995B19E7F95B94F
S113063000C000C0000095B1926095B900C000C030
S1130640000095B19D7F95B900C000C0000094B131
S1130650916094B90895CF93C82F0E94BE028C2F45
S11306600E94E1020E94CB02CF910895882311F0E9
S113067088E001C080E0683008F067E0862B809352
S1130680010180680E942B03089594B1936094B98A
S113069095B19C7F95B90E9436030895609101013C
S11306A067700E9436030895CF93DF93C82FD62F27
S11306B084E40E942B030E94BE028C2F8370806C02
S11306C00E94E1028D2F0E94E1020E94CB02DF9181
S11306D0CF9108956A3030F4E62FF0E0EE52FF4FE8
S11306E0649101C060E0813031F490910001907810
S11306F0692B609300010E9454030895882331F00C
S11307008091000180688093000105C08091000100
S11307108F77809300016091000181E00E9454036F
S11307200895CF93C0E005C060E08C2F0E9454036D
S1130730CF5FC430C8F3CF9108958F929F92AF9248
S1130740BF92CF92DF92EF92FF92CF93DF930E94FA
S1130750E5046B017C010E942105EC0180910E01EE
S113076090910F01BE01681B790B072E000C880BBA
S1130770990B0E9451072FE632E143E85AE30E94A5
S1130780A7064B015C019F772AE037ED43E25CE367
S11307900E94DD0718160CF5A5019401C701B601E6
S11307A00E94A70620911201309113014091140177
S11307B0509115010E943B0660931201709313013E
S11307C0809314019093150180911001909111016F
S11307D001969093110180931001D0930F01C0935F
S11307E00E0180911001909111018838934178F0A5
S11307F0109212011092130110921401109215011B
S1130800109211011092100180E00E947D028091EB
S1130810100190911101843F914018F081E00E94F1
S11308207D02DF91CF91FF90EF90DF90CF90BF904A
S1130830AF909F908F90089580E00E947D02109267
S113084011011092100110921201109213011092D2
S113085014011092150110920F0110920E0181E003
S113086090E00E9424058DE993E00E94380588EE0B
S113087093E00E945B010E949B0180E090E0089558
S11308800E943D050E94A40180E090E008950E942A
S1130890E20723EC35EF4CE151E40E94A7060895EA
S11308A0CF92DF92EF92FF920E94210599231CF4CC
S11308B091958195910985369105B0F58091100146
S11308C0909111010297A8F1C0901201D0901301E8
S11308D0E0901401F09015016091100170911101E4
S11308E080E090E00E944F079B01AC01C701B60174
S11308F00E94A7066B017C010E940005A7019601D6
S11309000E9447046093090170930A0180930B01CC
S113091090930C016091090170910A0180910B017F
S113092090910C010E94C50180910D0190E00E94FC
S11309303602FF90EF90DF90CF9008950E945B0203
S113094085E090E00E94240580E594E00E9438054B
S113095080E090E008950E943D050E94640280E0DA
S113096090E008950E949902882329F00E9440048F
S11309700E949E0408950E94AB040E941C040895E2
S11309800E94F40084E60E94AB010E94BA010E9416
S113099046020E94A1020E946C020E94870280E823
S11309A095E20E94A20281E00E94730280E00E940C
S11309B07D020E94B2042FEF81EE94E0215080402A
S11309C09040E1F700C00000F4CF83E00E94FB00F8
S11309D0BC0180E090E00E944F0723E333E343E54A
S11309E050E40E94E20720E030E040E85AE30E942D
S11309F0E20723E333E343ED5FE30E943A060895FD
S1130A0082E00E94FB00BC0180E090E00E944F075E
S1130A1023E333E343E550E40E94E20720E030E0BF
S1130A2040E85AE30E94E20720E030E040EC5FE354
S1130A300E943A062DEC3CEC4CEC5EE30E94A706C7
S1130A40089580E090E00895DC0120E930ED43E072
S1130A5050E00E945C0928EE33E040E050E00E9440
S1130A602B0921503109309389002093880008957F
S1130A7090931B0180931A010895E1E8F0E08081CE
S1130A808C7F808308951F920F920FB60F921124CA
S1130A902F933F934F935F936F937F938F939F9382
S1130AA0AF93BF93EF93FF9380911A0190911B0131
S1130AB0892B29F0E0911A01F0911B010995FF910E
S1130AC0EF91BF91AF919F918F917F916F915F91C2
S1130AD04F913F912F910F900FBE0F901F9018953B
S1130AE0DC017093190160931801E0EBF0E0908150
S1130AF092609083E0E7F0E090819260908320E937
S1130B0030ED43E050E00E945C0928EE33E040E021
S1130B1050E00E942B0921502093B300E1EBF0E058
S1130B2080818360808378940895E1EBF0E0808194
S1130B308C7F808308951F920F920FB60F92112419
S1130B402F933F934F935F936F937F938F939F93D1
S1130B50AF93BF93EF93FF93809118019091190184
S1130B60892B29F0E0911801F09119010995FF9161
S1130B70EF91BF91AF919F918F917F916F915F9111
S1130B804F913F912F910F900FBE0F901F9018958A
S1130B90CF93DF93DC0170931701609316011092D9
S1130BA09000C1E9D0E088E08883E1E7F0E090813B
S1130BB09260908320E930ED43E050E00E945C09AC
S1130BC028EE33E040E050E00E942B092150310927
S1130BD03093990020939800888183608883789467
S1130BE0DF91CF910895DC0120E930ED43E050E03E
S1130BF00E945C0928EE33E040E050E00E942B099B
S1130C002150310930939900209398000895E1E927
S1130C10F0E080818C7F808308951F920F920FB63D
S1130C200F9211242F933F934F935F936F937F936E
S1130C308F939F93AF93BF93EF93FF93809116018C
S1130C4090911701892B29F0E0911601F091170179
S1130C500995FF91EF91BF91AF919F918F917F91F2
S1130C606F915F914F913F912F910F900FBE0F9015
S1130C701F9018955058BB27AA270E9452060C941F
S1130C80A3070E94950738F00E949C0720F039F4CE
S1130C909F3F19F426F40C9492070EF4E095E7FBB9
S1130CA00C948C07E92F0E94B40758F3BA17620713
S1130CB073078407950720F079F4A6F50C94D607FA
S1130CC00EF4E0950B2EBA2FA02D0B01B901900163
S1130CD00C01CA01A0011124FF27591B99F0593FA7
S1130CE050F4503E68F11A16F040A22F232F342FEF
S1130CF04427585FF3CF469537952795A795F0403D
S1130D005395C9F77EF41F16BA0B620B730B840B51
S1130D10BAF09150A1F0FF0FBB1F661F771F881F09
S1130D20C2F70EC0BA0F621F731F841F48F4879561
S1130D3077956795B795F7959E3F08F0B0CF939553
S1130D40880F08F09927EE0F9795879508950E94CC
S1130D50BB060C94A3070E949C0758F00E949507B9
S1130D6040F029F45F3F29F00C948C0751110C9446
S1130D70D7070C9492070E94B40768F39923B1F340
S1130D80552391F3951B550BBB27AA2762177307AD
S1130D90840738F09F5F5F4F220F331F441FAA1F41
S1130DA0A9F335D00E2E3AF0E0E832D091505040FD
S1130DB0E695001CCAF72BD0FE2F29D0660F771FAB
S1130DC0881FBB1F261737074807AB07B0E809F091
S1130DD0BB0B802DBF01FF2793585F4F3AF09E3F16
S1130DE0510578F00C948C070C94D7075F3FE4F31B
S1130DF0983ED4F3869577956795B795F7959F5F59
S1130E00C9F7880F911D9695879597F90895E1E0A4
S1130E10660F771F881FBB1F621773078407BA0703
S1130E2020F0621B730B840BBA0BEE1F88F7E0955E
S1130E3008950E9420076894B1110C94D70708956F
S1130E400E94BC0788F09F5798F0B92F9927B75193
S1130E50B0F0E1F0660F771F881F991F1AF0BA955A
S1130E60C9F714C0B13091F00E94D607B1E00895DB
S1130E700C94D607672F782F8827B85F39F0B93FCD
S1130E80CCF3869577956795B395D9F73EF490950D
S1130E908095709561957F4F8F4F9F4F0895E8948B
S1130EA009C097FB3EF490958095709561957F4FAE
S1130EB08F4F9F4F9923A9F0F92F96E9BB2793955C
S1130EC0F695879577956795B795F111F8CFFAF46C
S1130ED0BB0F11F460FF1BC06F5F7F4F8F4F9F4F9D
S1130EE016C0882311F096E911C0772321F09EE8FB
S1130EF0872F762F05C0662371F096E8862F70E061
S1130F0060E02AF09A95660F771F881FDAF7880F3A
S1130F109695879597F9089597F99F6780E870E00B
S1130F2060E008959FEF80EC089500240A9416165B
S1130F30170618060906089500240A9412161306C3
S1130F40140605060895092E0394000C11F4882351
S1130F5052F0BB0F40F4BF2B11F460FF04C06F5F6D
S1130F607F4F8F4F9F4F089557FD9058440F551F43
S1130F7059F05F3F71F04795880F97FB991F61F017
S1130F809F3F79F087950895121613061406551F8E
S1130F90F2CF4695F1DF08C0161617061806991FFA
S1130FA0F1CF86957105610508940895E894BB27EF
S1130FB066277727CB0197F908950E94570808F40C
S1130FC08FEF08950E94F5070C94A3070E949507DC
S1130FD038F00E949C0720F0952311F00C948C07A4
S1130FE00C94920711240C94D7070E94B40770F351
S1130FF0959FC1F3950F50E0551F629FF001729FBA
S1131000BB27F00DB11D639FAA27F00DB11DAA1FC8
S1131010649F6627B00DA11D661F829F2227B00D15
S1131020A11D621F739FB00DA11D621F839FA00DA0
S1131030611D221F749F3327A00D611D231F849FF0
S1131040600D211D822F762F6A2F11249F57504047
S11310509AF0F1F088234AF0EE0FFF1FBB1F661FC2
S1131060771F881F91505040A9F79E3F510580F08B
S11310700C948C070C94D7075F3FE4F3983ED4F3A9
S1131080869577956795B795F795E7959F5FC1F72F
S1131090FE2B880F911D9695879597F908959F9338
S11310A00E947D080F9007FCEE5F0C94A608990F30
S11310B00008550FAA0BE0E8FEEF16161706E8071E
S11310C0F907C0F012161306E407F50798F0621B3F
S11310D0730B840B950B39F40A2661F0232B242B14
S11310E0252B21F408950A2609F4A140A6958FEF33
S11310F0811D811D08950C9492070E94BC07D8F3AA
S1131100E894E0E0BB279F57F0F02AED3FE049EC7C
S113111006C0EE0FBB0F661F771F881F28F0B23A78
S113112062077307840728F0B25A620B730B840BAF
S1131130E3959A9572F7803830F49A95BB0F661F41
S1131140771F881FD2F790480C94BC08EF93E0FFF8
S113115007C0A2EA2AED3FE049EC5FEB0E94520689
S11311600E94A3070F90039401FC9058E4EBF0E075
S11311700C94C8089F3F31F0915020F487957795DF
S11311806795B795880F911D9695879597F908955A
S11311909F938F937F936F93FF93EF939B01AC0186
S11311A00E94E207EF91FF910E94DC082F913F918A
S11311B04F915F910C94E207DF93CF931F930F93AA
S11311C0FF92EF92DF927B018C01689406C0DA2EC5
S11311D0EF010E94F507FE01E894A5912591359150
S11311E045915591A6F3EF010E945206FE01970125
S11311F0A801DA9469F7DF90EF90FF900F911F91A7
S1131200CF91DF910895AA1BBB1B51E107C0AA1F10
S1131210BB1FA617B70710F0A61BB70B881F991F93
S11312205A95A9F780959095BC01CD01089597FB37
S1131230072E16F4009407D077FD09D00E94030905
S113124007FC05D03EF4909581959F4F08957095C5
S113125061957F4F0895A1E21A2EAA1BBB1BFD01C5
S11312600DC0AA1FBB1FEE1FFF1FA217B307E40781
S1131270F50720F0A21BB30BE40BF50B661F771FD9
S1131280881F991F1A9469F76095709580959095B9
S11312909B01AC01BD01CF010895A29FB001B39F92
S11312A0C001A39F700D811D1124911DB29F700D6B
S11312B0811D1124911D08950E944D09A59F900D33
S11312C0B49F900DA49F800D911D11240895F8944E
S10512D0FFCF4A
S10512D2FF0F08
S9030000FC
